:1000000042C0B6C25BC05AC059C058C057C056C0E3
:1000100055C054C053C016C151C050C04FC04EC08F
:100020004DC04CC04BC020200020200020200043A9
:100030006F6E6E6563746564210042542077616958
:1000400074203420636F6E6E6563742E2E2E004D07
:10005000696B6F6C616A204F77637A6172637A6152
:100060006B004E6F72626572742048616E79737AAC
:10007000002053544D2052474220436F6E74726FDC
:100080006C6C6572000011241FBECFE5D4E0DEBFAA
:10009000CDBF10E0A0E6B0E0E4EBF8E002C00590D0
:1000A0000D92A239B107D9F720E0A2E9B0E001C072
:1000B0001D92A93AB207E1F76FD2FAC3A1CF90918E
:1000C0009200662311F0892B02C0809589238093CA
:1000D0009200969888E090E020E8979830919200FE
:1000E000322311F0959A01C09598979A2695019719
:1000F000A1F7969A0895CF93C82F613009F060E078
:1001000081E0DDDF61E082E0DADFC4FF02C061E0B0
:1001100001C060E084E0D3DFC5FF02C061E001C040
:1001200060E088E0CCDFC6FF02C061E001C060E0B3
:1001300080E1C5DFC7FF02C061E001C060E080E28E
:10014000BEDF60E082E0BBDF8FE697E10197F1F769
:1001500000C0000061E082E0B2DFC0FF02C061E0E9
:1001600001C060E084E0ABDFC1FF02C061E001C01C
:1001700060E088E0A4DFC2FF02C061E001C060E08F
:1001800080E19DDFC3FF02C061E001C060E080E26A
:1001900096DF60E082E093DF8FE697E10197F1F769
:1001A00000C00000CF91089581B3806E81BB60E0F4
:1001B00082E0A1DF60E088E29EDF60E08CE09BDF10
:1001C00060E081E098CF0F931F93CF938C01C0E044
:1001D000F801EC0FF11D8081882321F0CF5F61E0F1
:1001E0008ADFF6CFCF911F910F910895CF93DF93C0
:1001F000FC018491EF012196882321F061E07BDFEF
:10020000FE01F7CFDF91CF910895CF93DF93CDB764
:10021000DEB729970FB6F894DEBF0FBECDBF462FCD
:1002200050E0BE016F5F7F4F90E0FDD2CE0101969E
:10023000CADF29960FB6F894DEBF0FBECDBFDF919F
:10024000CF9108951F920F920FB60F9211248F93A2
:10025000EF93FF938CB18093A70094988091A700AF
:10026000843211F41092A400E091A40081E08E0F7A
:100270008093A400F0E08091A700ED56FF4F8083AB
:100280008091A700833239F48091A400882319F06B
:1002900081E08093A5008091A500882371F11092E0
:1002A000A50080919300843271F480919400883687
:1002B00051F480919500893631F480919600833213
:1002C00011F41092610080919300843259F480916E
:1002D0009400813639F480919500853219F481E0DB
:1002E0008093A80080919300843239F48091940027
:1002F000823619F481E080936000949AFF91EF9127
:100300008F910F900FBE0F901F901895EF92FF9254
:100310000F931F93CF93DF93CDB7DEB7E3970FB65D
:10032000F894DEBF0FBECDBF80E1E2E6F0E0DE0173
:10033000919601900D928A95E1F780E1E2E7F0E075
:10034000DE01519601900D928A95E1F780E1E2E895
:10035000F0E0DE01119601900D928A95E1F760E0E0
:1003600081E0C9DE81E790E041DF60E083ECC3DE3D
:1003700082E690E03BDF60E085E9BDDE8FE490E05F
:1003800035DF60E084EDB7DE8AE390E02FDF90E0B8
:1003900030E020E010E000E0F12C80916100882343
:1003A00009F464C0E1E2F0E0EC0FFD1FE20FF11D83
:1003B0008081F81215C0E1E1F0E0EC0FFD1FE30FC2
:1003C000F11D808108130CC0E1E0F0E0EC0FFD1F8F
:1003D000E90FF11D8081181303C0392F292F9F5F6A
:1003E000E1E2F0E0EC0FFD1FE20FF11D8081F81655
:1003F00010F4F39403C08F1508F4FA94E1E1F0E0EF
:10040000EC0FFD1FE30FF11D8081081710F40F5F43
:1004100003C0801708F40150E1E0F0E0EC0FFD1F8D
:10042000E90FF11D8081181710F41F5F03C08117B9
:1004300008F411502F703F709F7040E1E42E412F5F
:10044000602F8F2D29AB3AAB9BAB4BD1EA9429A9F6
:100450003AA99BA9E110F3CF4FEF50E782E041505A
:1004600050408040E1F700C0000097CF60E081E09D
:1004700042DE8FE290E0BADEFF20C1F0FA94011173
:1004800001501111115080E1E82E412F602F8F2D66
:1004900028D1EA94E110F9CF9FEF23EF41E091508A
:1004A00020404040E1F700C00000E6CF0111E8CF56
:1004B0001111E8CFE3960FB6F894DEBF0FBECDBFA3
:1004C000DF91CF911F910F91FF90EF900895CF93FF
:1004D000DF93EB01FC0123E030E090E0822FD901B3
:1004E000AD56BF4F6C91653241F09C9191932F5F57
:1004F0003F4F982F2630310589F782E0890F70E051
:10050000A92FB0E01496282F30E0A217B30734F0DB
:10051000F901ED56FF4F2081253219F49E5F80E0EE
:1005200016C09081FE01E70FF11D9083982F8F5F19
:100530007F5FE6CFF901ED56FF4F2081253261F054
:100540002081FA01E80FF11D20839F5F8F5F292F23
:1005500030E0A217B30774F7DF91CF9108958A981E
:10056000929A85B7826085BF8BB780648BBF0895F0
:100570001F920F920FB60F9211248F939F93909119
:10058000A60081E089278093A6009F918F910F900C
:100590000FBE0F901F901895CF93DF93CDB7DEB7A6
:1005A0002C970FB6F894DEBF0FBECDBFFDDD8C9A41
:1005B00077D0D5DF19D17894DD24D3948091600071
:1005C000882329F010926000D09261009FDE809114
:1005D000A800882399F31092A800198219861D8219
:1005E0001A821A861E821B821B861F82AE014F5FF3
:1005F0005F4FBE01675F7F4FCE01059668DFCE017A
:100600000596F4D0082FCE010996F0D0F82ECE0131
:100610000196ECD0E82E60E080E86DDD6AE0802F86
:10062000F4DD8CE290E0E2DD6AE08F2DEEDD89E220
:1006300090E0DCDD6AE08E2DE8DD86E290E0D6DD3C
:1006400060E080EC58DD83E990E0BDDD8091A6009C
:100650008823C1F010E0143018F440E060E00CC0D2
:10066000183018F440E06F2D04C04E2D1C3018F4E3
:1006700060E080E002C06F2D802F33D01F5F10310B
:1006800051F707C010E14E2D6F2D802F2AD0115049
:10069000D1F78FE99FE00197F1F700C000008ECFFE
:1006A00010BC88E089B980E88BB988E98AB986E806
:1006B00080BD0895C39A0000000000000000000003
:1006C00000000000C398000000000895C39A0000D5
:1006D00000000000000000000000C39800000000BF
:1006E00008951F93CF93DF93D82F162FC42F67FF42
:1006F00002C0E0DF01C0EADF16FF02C0DBDF01C09D
:10070000E5DF15FF02C0D6DF01C0E0DF14FF02C045
:10071000D1DF01C0DBDF13FF02C0CCDF01C0D6DFB9
:1007200012FF02C0C7DF01C0D1DF11FF02C0C2DF6C
:1007300001C0CCDF10FF02C0BDDF01C0C7DFD7FFA3
:1007400002C0B8DF01C0C2DFD6FF02C0B3DF01C004
:10075000BDDFD5FF02C0AEDF01C0B8DFD4FF02C0ED
:10076000A9DF01C0B3DFD3FF02C0A4DF01C0AEDF49
:10077000D2FF02C09FDF01C0A9DFD1FF02C09ADF14
:1007800001C0A4DFD0FF02C095DF01C09FDFC7FF1B
:1007900002C090DF01C09ADFC6FF02C08BDF01C03C
:1007A00095DFC5FF02C086DF01C090DFC4FF02C035
:1007B00081DF01C08BDFC3FF02C07CDF01C086DFA9
:1007C000C2FF02C077DF01C081DFC1FF02C072DF5C
:1007D00001C07CDFC0FF04C0DF91CF911F916ACFC1
:1007E000DF91CF911F9172CFBB9A0895FC018827AA
:1007F0009927E89421912032E9F3293010F02E3026
:10080000C8F32B3239F02D3231F4689403C01FD075
:10081000820F911D219120532A30C8F31EF4909528
:1008200081959F4F08954532510518F4423008F0E4
:1008300004C0FB011082CB010895BB274A3031F47C
:10084000992322F4BDE2909581959F4F09C07AE0EB
:10085000979F902D879F802D910D11240895BB2780
:10086000FB015527AA27880F991FAA1FA41710F06C
:10087000A41B83955051B9F7A05DAA3308F0A95D78
:10088000A193009779F7B111B1931192CB0100C0F8
:10089000DC01FC01672F71917723E1F7329704C0E7
:1008A0007C916D9370836291AE17BF07C8F3089572
:0408B000F894FFCFEA
:1008B40001010A0A140A00140F05140A000F050A9C
:1008C400140A0A0F0A140514000F140A14000F1452
:1008D4000A0F140A140F140F0A140F0A050A0F142E
:0208E400140FEF
:00000001FF
